{"abi":[{"type":"constructor","inputs":[{"name":"_question","type":"string","internalType":"string"}],"stateMutability":"nonpayable"},{"type":"function","name":"getMarket","inputs":[],"outputs":[{"name":"question","type":"string","internalType":"string"},{"name":"yesPrice","type":"uint256","internalType":"uint256"},{"name":"noPrice","type":"uint256","internalType":"uint256"},{"name":"liquidity","type":"uint256","internalType":"uint256"},{"name":"active","type":"bool","internalType":"bool"}],"stateMutability":"view"},{"type":"function","name":"hasArbitrage","inputs":[],"outputs":[{"name":"","type":"bool","internalType":"bool"},{"name":"spread","type":"int256","internalType":"int256"}],"stateMutability":"view"},{"type":"function","name":"lastUpdateTime","inputs":[],"outputs":[{"name":"","type":"uint256","internalType":"uint256"}],"stateMutability":"view"},{"type":"function","name":"market","inputs":[],"outputs":[{"name":"question","type":"string","internalType":"string"},{"name":"yesPrice","type":"uint256","internalType":"uint256"},{"name":"noPrice","type":"uint256","internalType":"uint256"},{"name":"liquidity","type":"uint256","internalType":"uint256"},{"name":"active","type":"bool","internalType":"bool"}],"stateMutability":"view"},{"type":"function","name":"owner","inputs":[],"outputs":[{"name":"","type":"address","internalType":"address"}],"stateMutability":"view"},{"type":"function","name":"simulatePriceMovement","inputs":[],"outputs":[],"stateMutability":"nonpayable"},{"type":"function","name":"toggleActive","inputs":[],"outputs":[],"stateMutability":"nonpayable"},{"type":"function","name":"updateLiquidity","inputs":[{"name":"_liquidity","type":"uint256","internalType":"uint256"}],"outputs":[],"stateMutability":"nonpayable"},{"type":"function","name":"updatePrices","inputs":[{"name":"_yesPrice","type":"uint256","internalType":"uint256"},{"name":"_noPrice","type":"uint256","internalType":"uint256"}],"outputs":[],"stateMutability":"nonpayable"},{"type":"event","name":"MarketCreated","inputs":[{"name":"question","type":"string","indexed":false,"internalType":"string"},{"name":"yesPrice","type":"uint256","indexed":false,"internalType":"uint256"},{"name":"noPrice","type":"uint256","indexed":false,"internalType":"uint256"}],"anonymous":false},{"type":"event","name":"QuoteUpdated","inputs":[{"name":"timestamp","type":"uint256","indexed":true,"internalType":"uint256"},{"name":"yesPrice","type":"uint256","indexed":false,"internalType":"uint256"},{"name":"noPrice","type":"uint256","indexed":false,"internalType":"uint256"},{"name":"liquidity","type":"uint256","indexed":false,"internalType":"uint256"}],"anonymous":false}],"bytecode":{"object":"0x608060405234801561000f575f5ffd5b50604051611626380380611626833981810160405281019061003191906102d1565b3360055f6101000a81548173ffffffffffffffffffffffffffffffffffffffff021916908373ffffffffffffffffffffffffffffffffffffffff1602179055506040518060a0016040528082815260200161138881526020016113888152602001633b9aca008152602001600115158152505f5f820151815f0190816100b79190610539565b506020820151816001015560408201518160020155606082015181600301556080820151816004015f6101000a81548160ff021916908315150217905550905050426006819055507f88e25d3fbb0b1cbd1fb440faec67b4386ef912082f8d22116b252800c1c6b7e5816113888060405161013493929190610689565b60405180910390a1427f277fb29324b9f687da1e70e0a97914486d3a2858e41a0ed3b2d61e9a8761cc0661138880633b9aca00604051610176939291906106fe565b60405180910390a250610733565b5f604051905090565b5f5ffd5b5f5ffd5b5f5ffd5b5f5ffd5b5f601f19601f8301169050919050565b7f4e487b71000000000000000000000000000000000000000000000000000000005f52604160045260245ffd5b6101e38261019d565b810181811067ffffffffffffffff82111715610202576102016101ad565b5b80604052505050565b5f610214610184565b905061022082826101da565b919050565b5f67ffffffffffffffff82111561023f5761023e6101ad565b5b6102488261019d565b9050602081019050919050565b8281835e5f83830152505050565b5f61027561027084610225565b61020b565b90508281526020810184848401111561029157610290610199565b5b61029c848285610255565b509392505050565b5f82601f8301126102b8576102b7610195565b5b81516102c8848260208601610263565b91505092915050565b5f602082840312156102e6576102e561018d565b5b5f82015167ffffffffffffffff81111561030357610302610191565b5b61030f848285016102a4565b91505092915050565b5f81519050919050565b7f4e487b71000000000000000000000000000000000000000000000000000000005f52602260045260245ffd5b5f600282049050600182168061036657607f821691505b60208210810361037957610378610322565b5b50919050565b5f819050815f5260205f209050919050565b5f6020601f8301049050919050565b5f82821b905092915050565b5f600883026103db7fffffffffffffffffffffffffffffffffffffffffffffffffffffffffffffffff826103a0565b6103e586836103a0565b95508019841693508086168417925050509392505050565b5f819050919050565b5f819050919050565b5f61042961042461041f846103fd565b610406565b6103fd565b9050919050565b5f819050919050565b6104428361040f565b61045661044e82610430565b8484546103ac565b825550505050565b5f5f905090565b61046d61045e565b610478818484610439565b505050565b5f5b8281101561049e576104935f828401610465565b60018101905061047f565b505050565b601f8211156104f157828211156104f0576104bd8161037f565b6104c683610391565b6104cf85610391565b60208610156104dc575f90505b8083016104eb8284038261047d565b505050505b5b505050565b5f82821c905092915050565b5f6105115f19846008026104f6565b1980831691505092915050565b5f6105298383610502565b9150826002028217905092915050565b61054282610318565b67ffffffffffffffff81111561055b5761055a6101ad565b5b610565825461034f565b6105708282856104a3565b5f60209050601f8311600181146105a1575f841561058f578287015190505b610599858261051e565b865550610600565b601f1984166105af8661037f565b5f5b828110156105d6578489015182556001820191506020850194506020810190506105b1565b868310156105f357848901516105ef601f891682610502565b8355505b6001600288020188555050505b505050505050565b5f82825260208201905092915050565b5f61062282610318565b61062c8185610608565b935061063c818560208601610255565b6106458161019d565b840191505092915050565b5f819050919050565b5f61067361066e61066984610650565b610406565b6103fd565b9050919050565b61068381610659565b82525050565b5f6060820190508181035f8301526106a18186610618565b90506106b0602083018561067a565b6106bd604083018461067a565b949350505050565b5f819050919050565b5f6106e86106e36106de846106c5565b610406565b6103fd565b9050919050565b6106f8816106ce565b82525050565b5f6060820190506107115f83018661067a565b61071e602083018561067a565b61072b60408301846106ef565b949350505050565b610ee6806107405f395ff3fe608060405234801561000f575f5ffd5b5060043610610091575f3560e01c80638da5cb5b116100645780638da5cb5b146100ea578063c8f33c9114610108578063ced0911214610126578063ef88d7f014610142578063f1be16791461015e57610091565b806329c68dc114610095578063580547841461009f57806363ad1d04146100be57806380f55605146100c8575b5f5ffd5b61009d610180565b005b6100a761023d565b6040516100b59291906108f8565b60405180910390f35b6100c6610271565b005b6100d061045e565b6040516100e19594939291906109a7565b60405180910390f35b6100f2610512565b6040516100ff9190610a3e565b60405180910390f35b610110610537565b60405161011d9190610a57565b60405180910390f35b610140600480360381019061013b9190610a9e565b61053d565b005b61015c60048036038101906101579190610ac9565b610673565b005b610166610802565b6040516101779594939291906109a7565b60405180910390f35b60055f9054906101000a900473ffffffffffffffffffffffffffffffffffffffff1673ffffffffffffffffffffffffffffffffffffffff163373ffffffffffffffffffffffffffffffffffffffff161461020f576040517f08c379a000000000000000000000000000000000000000000000000000000000815260040161020690610b51565b60405180910390fd5b5f6004015f9054906101000a900460ff16155f6004015f6101000a81548160ff021916908315150217905550565b5f5f5f5f600201545f600101546102549190610b9c565b9050612710816102649190610bcf565b91505f8214159250509091565b60055f9054906101000a900473ffffffffffffffffffffffffffffffffffffffff1673ffffffffffffffffffffffffffffffffffffffff163373ffffffffffffffffffffffffffffffffffffffff1614610300576040517f08c379a00000000000000000000000000000000000000000000000000000000081526004016102f790610b51565b60405180910390fd5b5f6004015f9054906101000a900460ff16610350576040517f08c379a000000000000000000000000000000000000000000000000000000000815260040161034790610c59565b60405180910390fd5b5f42443360405160200161036693929190610cdc565b604051602081830303815290604052805190602001205f1c90505f60fa6101f4836103919190610d45565b61039b9190610bcf565b90505f815f600101546103ae9190610d75565b90505f825f600201546103c19190610bcf565b905060648212156103d157606491505b6126ac8213156103e1576126ac91505b60648112156103ef57606490505b6126ac8113156103ff576126ac90505b815f60010181905550805f6002018190555042600681905550427f277fb29324b9f687da1e70e0a97914486d3a2858e41a0ed3b2d61e9a8761cc0683835f6003015460405161045093929190610db6565b60405180910390a250505050565b5f805f01805461046d90610e18565b80601f016020809104026020016040519081016040528092919081815260200182805461049990610e18565b80156104e45780601f106104bb576101008083540402835291602001916104e4565b820191905f5260205f20905b8154815290600101906020018083116104c757829003601f168201915b505050505090806001015490806002015490806003015490806004015f9054906101000a900460ff16905085565b60055f9054906101000a900473ffffffffffffffffffffffffffffffffffffffff1681565b60065481565b60055f9054906101000a900473ffffffffffffffffffffffffffffffffffffffff1673ffffffffffffffffffffffffffffffffffffffff163373ffffffffffffffffffffffffffffffffffffffff16146105cc576040517f08c379a00000000000000000000000000000000000000000000000000000000081526004016105c390610b51565b60405180910390fd5b5f6004015f9054906101000a900460ff1661061c576040517f08c379a000000000000000000000000000000000000000000000000000000000815260040161061390610c59565b60405180910390fd5b805f6003018190555042600681905550427f277fb29324b9f687da1e70e0a97914486d3a2858e41a0ed3b2d61e9a8761cc065f600101545f600201548460405161066893929190610db6565b60405180910390a250565b60055f9054906101000a900473ffffffffffffffffffffffffffffffffffffffff1673ffffffffffffffffffffffffffffffffffffffff163373ffffffffffffffffffffffffffffffffffffffff1614610702576040517f08c379a00000000000000000000000000000000000000000000000000000000081526004016106f990610b51565b60405180910390fd5b5f6004015f9054906101000a900460ff16610752576040517f08c379a000000000000000000000000000000000000000000000000000000000815260040161074990610c59565b60405180910390fd5b612710821115801561076657506127108111155b6107a5576040517f08c379a000000000000000000000000000000000000000000000000000000000815260040161079c90610e92565b60405180910390fd5b815f60010181905550805f6002018190555042600681905550427f277fb29324b9f687da1e70e0a97914486d3a2858e41a0ed3b2d61e9a8761cc0683835f600301546040516107f693929190610db6565b60405180910390a25050565b60605f5f5f5f5f5f015f600101545f600201545f600301545f6004015f9054906101000a900460ff1684805461083790610e18565b80601f016020809104026020016040519081016040528092919081815260200182805461086390610e18565b80156108ae5780601f10610885576101008083540402835291602001916108ae565b820191905f5260205f20905b81548152906001019060200180831161089157829003601f168201915b50505050509450945094509450945094509091929394565b5f8115159050919050565b6108da816108c6565b82525050565b5f819050919050565b6108f2816108e0565b82525050565b5f60408201905061090b5f8301856108d1565b61091860208301846108e9565b9392505050565b5f81519050919050565b5f82825260208201905092915050565b8281835e5f83830152505050565b5f601f19601f8301169050919050565b5f6109618261091f565b61096b8185610929565b935061097b818560208601610939565b61098481610947565b840191505092915050565b5f819050919050565b6109a18161098f565b82525050565b5f60a0820190508181035f8301526109bf8188610957565b90506109ce6020830187610998565b6109db6040830186610998565b6109e86060830185610998565b6109f560808301846108d1565b9695505050505050565b5f73ffffffffffffffffffffffffffffffffffffffff82169050919050565b5f610a28826109ff565b9050919050565b610a3881610a1e565b82525050565b5f602082019050610a515f830184610a2f565b92915050565b5f602082019050610a6a5f830184610998565b92915050565b5f5ffd5b610a7d8161098f565b8114610a87575f5ffd5b50565b5f81359050610a9881610a74565b92915050565b5f60208284031215610ab357610ab2610a70565b5b5f610ac084828501610a8a565b91505092915050565b5f5f60408385031215610adf57610ade610a70565b5b5f610aec85828601610a8a565b9250506020610afd85828601610a8a565b9150509250929050565b7f4f6e6c79206f776e6572000000000000000000000000000000000000000000005f82015250565b5f610b3b600a83610929565b9150610b4682610b07565b602082019050919050565b5f6020820190508181035f830152610b6881610b2f565b9050919050565b7f4e487b71000000000000000000000000000000000000000000000000000000005f52601160045260245ffd5b5f610ba68261098f565b9150610bb18361098f565b9250828201905080821115610bc957610bc8610b6f565b5b92915050565b5f610bd9826108e0565b9150610be4836108e0565b925082820390508181125f8412168282135f851215161715610c0957610c08610b6f565b5b92915050565b7f4d61726b6574206e6f74206163746976650000000000000000000000000000005f82015250565b5f610c43601183610929565b9150610c4e82610c0f565b602082019050919050565b5f6020820190508181035f830152610c7081610c37565b9050919050565b5f819050919050565b610c91610c8c8261098f565b610c77565b82525050565b5f8160601b9050919050565b5f610cad82610c97565b9050919050565b5f610cbe82610ca3565b9050919050565b610cd6610cd182610a1e565b610cb4565b82525050565b5f610ce78286610c80565b602082019150610cf78285610c80565b602082019150610d078284610cc5565b601482019150819050949350505050565b7f4e487b71000000000000000000000000000000000000000000000000000000005f52601260045260245ffd5b5f610d4f8261098f565b9150610d5a8361098f565b925082610d6a57610d69610d18565b5b828206905092915050565b5f610d7f826108e0565b9150610d8a836108e0565b92508282019050828112155f8312168382125f841215161715610db057610daf610b6f565b5b92915050565b5f606082019050610dc95f830186610998565b610dd66020830185610998565b610de36040830184610998565b949350505050565b7f4e487b71000000000000000000000000000000000000000000000000000000005f52602260045260245ffd5b5f6002820490506001821680610e2f57607f821691505b602082108103610e4257610e41610deb565b5b50919050565b7f496e76616c6964207072696365730000000000000000000000000000000000005f82015250565b5f610e7c600e83610929565b9150610e8782610e48565b602082019050919050565b5f6020820190508181035f830152610ea981610e70565b905091905056fea26469706673582212202265963273da547e2451d3a04e4fa5808d4b60624904b4abce9861407abc3fbd64736f6c63430008210033","linkReferences":{}},"methodIdentifiers":{"getMarket()":"f1be1679","hasArbitrage()":"58054784","lastUpdateTime()":"c8f33c91","market()":"80f55605","owner()":"8da5cb5b","simulatePriceMovement()":"63ad1d04","toggleActive()":"29c68dc1","updateLiquidity(uint256)":"ced09112","updatePrices(uint256,uint256)":"ef88d7f0"},"id":0}